{
  "_format": "hh-sol-artifact-1",
  "contractName": "PaxeerWalletManager",
  "sourceName": "contracts/PaxeerWalletManager.sol",
  "abi": [
    {
      "inputs": [],
      "stateMutability": "nonpayable",
      "type": "constructor"
    },
    {
      "inputs": [],
      "name": "ECDSAInvalidSignature",
      "type": "error"
    },
    {
      "inputs": [
        {
          "internalType": "uint256",
          "name": "length",
          "type": "uint256"
        }
      ],
      "name": "ECDSAInvalidSignatureLength",
      "type": "error"
    },
    {
      "inputs": [
        {
          "internalType": "bytes32",
          "name": "s",
          "type": "bytes32"
        }
      ],
      "name": "ECDSAInvalidSignatureS",
      "type": "error"
    },
    {
      "inputs": [
        {
          "internalType": "address",
          "name": "owner",
          "type": "address"
        }
      ],
      "name": "OwnableInvalidOwner",
      "type": "error"
    },
    {
      "inputs": [
        {
          "internalType": "address",
          "name": "account",
          "type": "address"
        }
      ],
      "name": "OwnableUnauthorizedAccount",
      "type": "error"
    },
    {
      "inputs": [],
      "name": "ReentrancyGuardReentrantCall",
      "type": "error"
    },
    {
      "anonymous": false,
      "inputs": [
        {
          "indexed": true,
          "internalType": "address",
          "name": "wallet",
          "type": "address"
        },
        {
          "indexed": true,
          "internalType": "string",
          "name": "dappId",
          "type": "string"
        },
        {
          "indexed": false,
          "internalType": "uint256",
          "name": "sessionId",
          "type": "uint256"
        }
      ],
      "name": "DappConnected",
      "type": "event"
    },
    {
      "anonymous": false,
      "inputs": [
        {
          "indexed": true,
          "internalType": "string",
          "name": "dappId",
          "type": "string"
        },
        {
          "indexed": true,
          "internalType": "address",
          "name": "owner",
          "type": "address"
        },
        {
          "indexed": false,
          "internalType": "string",
          "name": "domain",
          "type": "string"
        }
      ],
      "name": "DappRegistered",
      "type": "event"
    },
    {
      "anonymous": false,
      "inputs": [
        {
          "indexed": true,
          "internalType": "address",
          "name": "previousOwner",
          "type": "address"
        },
        {
          "indexed": true,
          "internalType": "address",
          "name": "newOwner",
          "type": "address"
        }
      ],
      "name": "OwnershipTransferred",
      "type": "event"
    },
    {
      "anonymous": false,
      "inputs": [
        {
          "indexed": true,
          "internalType": "address",
          "name": "wallet",
          "type": "address"
        },
        {
          "indexed": true,
          "internalType": "uint256",
          "name": "sessionId",
          "type": "uint256"
        },
        {
          "indexed": false,
          "internalType": "uint256",
          "name": "expiryTime",
          "type": "uint256"
        }
      ],
      "name": "SessionCreated",
      "type": "event"
    },
    {
      "anonymous": false,
      "inputs": [
        {
          "indexed": true,
          "internalType": "address",
          "name": "wallet",
          "type": "address"
        },
        {
          "indexed": false,
          "internalType": "uint256",
          "name": "sessionId",
          "type": "uint256"
        },
        {
          "indexed": false,
          "internalType": "uint256",
          "name": "newExpiry",
          "type": "uint256"
        }
      ],
      "name": "SessionExtended",
      "type": "event"
    },
    {
      "anonymous": false,
      "inputs": [
        {
          "indexed": true,
          "internalType": "address",
          "name": "wallet",
          "type": "address"
        },
        {
          "indexed": false,
          "internalType": "uint256",
          "name": "sessionId",
          "type": "uint256"
        }
      ],
      "name": "WalletDisconnected",
      "type": "event"
    },
    {
      "inputs": [
        {
          "internalType": "address",
          "name": "wallet",
          "type": "address"
        },
        {
          "internalType": "string",
          "name": "dappId",
          "type": "string"
        }
      ],
      "name": "canAutoConnect",
      "outputs": [
        {
          "internalType": "bool",
          "name": "",
          "type": "bool"
        }
      ],
      "stateMutability": "view",
      "type": "function"
    },
    {
      "inputs": [
        {
          "internalType": "string",
          "name": "dappId",
          "type": "string"
        },
        {
          "internalType": "address",
          "name": "wallet",
          "type": "address"
        }
      ],
      "name": "connectToDapp",
      "outputs": [
        {
          "internalType": "bool",
          "name": "",
          "type": "bool"
        }
      ],
      "stateMutability": "nonpayable",
      "type": "function"
    },
    {
      "inputs": [
        {
          "internalType": "uint256",
          "name": "duration",
          "type": "uint256"
        },
        {
          "internalType": "bytes",
          "name": "signature",
          "type": "bytes"
        }
      ],
      "name": "createSession",
      "outputs": [],
      "stateMutability": "nonpayable",
      "type": "function"
    },
    {
      "inputs": [
        {
          "internalType": "string",
          "name": "dappId",
          "type": "string"
        }
      ],
      "name": "deactivateDapp",
      "outputs": [],
      "stateMutability": "nonpayable",
      "type": "function"
    },
    {
      "inputs": [],
      "name": "defaultSessionDuration",
      "outputs": [
        {
          "internalType": "uint256",
          "name": "",
          "type": "uint256"
        }
      ],
      "stateMutability": "view",
      "type": "function"
    },
    {
      "inputs": [],
      "name": "disconnectWallet",
      "outputs": [],
      "stateMutability": "nonpayable",
      "type": "function"
    },
    {
      "inputs": [
        {
          "internalType": "address",
          "name": "target",
          "type": "address"
        },
        {
          "internalType": "bytes",
          "name": "data",
          "type": "bytes"
        },
        {
          "internalType": "string",
          "name": "dappId",
          "type": "string"
        }
      ],
      "name": "executeTransaction",
      "outputs": [
        {
          "internalType": "bool",
          "name": "success",
          "type": "bool"
        },
        {
          "internalType": "bytes",
          "name": "result",
          "type": "bytes"
        }
      ],
      "stateMutability": "nonpayable",
      "type": "function"
    },
    {
      "inputs": [
        {
          "internalType": "uint256",
          "name": "additionalDuration",
          "type": "uint256"
        }
      ],
      "name": "extendSession",
      "outputs": [],
      "stateMutability": "nonpayable",
      "type": "function"
    },
    {
      "inputs": [
        {
          "internalType": "address",
          "name": "wallet",
          "type": "address"
        }
      ],
      "name": "getSessionInfo",
      "outputs": [
        {
          "internalType": "uint256",
          "name": "sessionId",
          "type": "uint256"
        },
        {
          "internalType": "uint256",
          "name": "expiryTime",
          "type": "uint256"
        },
        {
          "internalType": "bool",
          "name": "isActive",
          "type": "bool"
        },
        {
          "internalType": "string[]",
          "name": "connectedDapps",
          "type": "string[]"
        }
      ],
      "stateMutability": "view",
      "type": "function"
    },
    {
      "inputs": [],
      "name": "maxSessionDuration",
      "outputs": [
        {
          "internalType": "uint256",
          "name": "",
          "type": "uint256"
        }
      ],
      "stateMutability": "view",
      "type": "function"
    },
    {
      "inputs": [],
      "name": "owner",
      "outputs": [
        {
          "internalType": "address",
          "name": "",
          "type": "address"
        }
      ],
      "stateMutability": "view",
      "type": "function"
    },
    {
      "inputs": [
        {
          "internalType": "string",
          "name": "dappId",
          "type": "string"
        }
      ],
      "name": "reactivateDapp",
      "outputs": [],
      "stateMutability": "nonpayable",
      "type": "function"
    },
    {
      "inputs": [
        {
          "internalType": "string",
          "name": "dappId",
          "type": "string"
        },
        {
          "internalType": "string",
          "name": "name",
          "type": "string"
        },
        {
          "internalType": "string",
          "name": "domain",
          "type": "string"
        },
        {
          "internalType": "address",
          "name": "dappOwner",
          "type": "address"
        }
      ],
      "name": "registerDapp",
      "outputs": [],
      "stateMutability": "nonpayable",
      "type": "function"
    },
    {
      "inputs": [
        {
          "internalType": "string",
          "name": "",
          "type": "string"
        }
      ],
      "name": "registeredDapps",
      "outputs": [
        {
          "internalType": "string",
          "name": "name",
          "type": "string"
        },
        {
          "internalType": "string",
          "name": "domain",
          "type": "string"
        },
        {
          "internalType": "address",
          "name": "owner",
          "type": "address"
        },
        {
          "internalType": "bool",
          "name": "isVerified",
          "type": "bool"
        },
        {
          "internalType": "bool",
          "name": "isActive",
          "type": "bool"
        }
      ],
      "stateMutability": "view",
      "type": "function"
    },
    {
      "inputs": [],
      "name": "renounceOwnership",
      "outputs": [],
      "stateMutability": "nonpayable",
      "type": "function"
    },
    {
      "inputs": [
        {
          "internalType": "uint256",
          "name": "duration",
          "type": "uint256"
        }
      ],
      "name": "setMaxSessionDuration",
      "outputs": [],
      "stateMutability": "nonpayable",
      "type": "function"
    },
    {
      "inputs": [
        {
          "internalType": "uint256",
          "name": "duration",
          "type": "uint256"
        }
      ],
      "name": "setSessionDuration",
      "outputs": [],
      "stateMutability": "nonpayable",
      "type": "function"
    },
    {
      "inputs": [
        {
          "internalType": "address",
          "name": "newOwner",
          "type": "address"
        }
      ],
      "name": "transferOwnership",
      "outputs": [],
      "stateMutability": "nonpayable",
      "type": "function"
    },
    {
      "inputs": [
        {
          "internalType": "address",
          "name": "",
          "type": "address"
        }
      ],
      "name": "walletNonces",
      "outputs": [
        {
          "internalType": "uint256",
          "name": "",
          "type": "uint256"
        }
      ],
      "stateMutability": "view",
      "type": "function"
    },
    {
      "inputs": [
        {
          "internalType": "address",
          "name": "",
          "type": "address"
        }
      ],
      "name": "walletSessions",
      "outputs": [
        {
          "internalType": "address",
          "name": "wallet",
          "type": "address"
        },
        {
          "internalType": "uint256",
          "name": "sessionId",
          "type": "uint256"
        },
        {
          "internalType": "uint256",
          "name": "expiryTime",
          "type": "uint256"
        },
        {
          "internalType": "bool",
          "name": "isActive",
          "type": "bool"
        }
      ],
      "stateMutability": "view",
      "type": "function"
    }
  ],
  "bytecode": "0x60806040526201518060055562093a8060065534801561001e57600080fd5b50336001600081905550600073ffffffffffffffffffffffffffffffffffffffff168173ffffffffffffffffffffffffffffffffffffffff160361009a5760006040517f1e4fbdf700000000000000000000000000000000000000000000000000000000815260040161009191906101b6565b60405180910390fd5b6100a9816100af60201b60201c565b506101d1565b6000600160009054906101000a900473ffffffffffffffffffffffffffffffffffffffff16905081600160006101000a81548173ffffffffffffffffffffffffffffffffffffffff021916908373ffffffffffffffffffffffffffffffffffffffff1602179055508173ffffffffffffffffffffffffffffffffffffffff168173ffffffffffffffffffffffffffffffffffffffff167f8be0079c531659141344cd1fd0a4f28419497f9722a3daafe3b4186f6b6457e060405160405180910390a35050565b600073ffffffffffffffffffffffffffffffffffffffff82169050919050565b60006101a082610175565b9050919050565b6101b081610195565b82525050565b60006020820190506101cb60008301846101a7565b92915050565b6133e0806101e06000396000f3fe608060405234801561001057600080fd5b506004361061012c5760003560e01c80638da5cb5b116100ad578063aa9549b511610071578063aa9549b514610335578063b17dbb2814610353578063c8bdf51d1461036f578063f2fde38b146103a2578063f8c03c44146103be5761012c565b80638da5cb5b1461027c5780638fb87d511461029a57806392b17b9e146102b65780639a598797146102e6578063a8c128ad146103025761012c565b80635f22170e116100f45780635f22170e146101fc57806363e680ae14610218578063715018a61461022257806383db0baf1461022c5780638badacab146102485761012c565b80630d434c0f14610131578063244b160114610161578063251d10b01461017f5780634661f3311461019b5780634920f9e6146101cc575b600080fd5b61014b60048036038101906101469190611edb565b6103da565b6040516101589190611f21565b60405180910390f35b6101696103f2565b6040516101769190611f21565b60405180910390f35b61019960048036038101906101949190611f68565b6103f8565b005b6101b560048036038101906101b0919061213b565b610622565b6040516101c3929190612265565b60405180910390f35b6101e660048036038101906101e19190612295565b610948565b6040516101f391906122f1565b60405180910390f35b6102166004803603810190610211919061230c565b610a24565b005b610220610a69565b005b61022a610b6f565b005b61024660048036038101906102419190611f68565b610b83565b005b610262600480360381019061025d919061230c565b610bda565b6040516102739594939291906123b9565b60405180910390f35b610284610d70565b604051610291919061241a565b60405180910390f35b6102b460048036038101906102af91906124d6565b610d9a565b005b6102d060048036038101906102cb9190612532565b61111d565b6040516102dd91906122f1565b60405180910390f35b61030060048036038101906102fb9190611f68565b611434565b005b61031c60048036038101906103179190611edb565b611446565b60405161032c949392919061269a565b60405180910390f35b61033d6115a2565b60405161034a9190611f21565b60405180910390f35b61036d600480360381019061036891906126e6565b6115a8565b005b61038960048036038101906103849190611edb565b6117e4565b60405161039994939291906127a1565b60405180910390f35b6103bc60048036038101906103b79190611edb565b611841565b005b6103d860048036038101906103d3919061230c565b6118c7565b005b60046020528060005260406000206000915090505481565b60065481565b33600260008273ffffffffffffffffffffffffffffffffffffffff1673ffffffffffffffffffffffffffffffffffffffff16815260200190815260200160002060030160009054906101000a900460ff168015610496575042600260008373ffffffffffffffffffffffffffffffffffffffff1673ffffffffffffffffffffffffffffffffffffffff16815260200190815260200160002060020154115b6104d5576040517f08c379a00000000000000000000000000000000000000000000000000000000081526004016104cc90612832565b60405180910390fd5b60008211610518576040517f08c379a000000000000000000000000000000000000000000000000000000000815260040161050f9061289e565b60405180910390fd5b6000600260003373ffffffffffffffffffffffffffffffffffffffff1673ffffffffffffffffffffffffffffffffffffffff1681526020019081526020016000209050600083826002015461056d91906128ed565b90506006544261057d91906128ed565b8111156105bf576040517f08c379a00000000000000000000000000000000000000000000000000000000081526004016105b69061296d565b60405180910390fd5b8082600201819055503373ffffffffffffffffffffffffffffffffffffffff167fb5d3f2e1012d189a8f45a2df83ea66c70c69f331e546c8aa73e6f5fe9d87670683600101548360405161061492919061298d565b60405180910390a250505050565b6000606033600260008273ffffffffffffffffffffffffffffffffffffffff1673ffffffffffffffffffffffffffffffffffffffff16815260200190815260200160002060030160009054906101000a900460ff1680156106c4575042600260008373ffffffffffffffffffffffffffffffffffffffff1673ffffffffffffffffffffffffffffffffffffffff16815260200190815260200160002060020154115b610703576040517f08c379a00000000000000000000000000000000000000000000000000000000081526004016106fa90612832565b60405180910390fd5b8360038160405161071491906129f2565b908152602001604051809103902060020160149054906101000a900460ff16610772576040517f08c379a000000000000000000000000000000000000000000000000000000000815260040161076990612a55565b60405180910390fd5b60038160405161078291906129f2565b908152602001604051809103902060020160159054906101000a900460ff166107e0576040517f08c379a00000000000000000000000000000000000000000000000000000000081526004016107d790612ac1565b60405180910390fd5b600260003373ffffffffffffffffffffffffffffffffffffffff1673ffffffffffffffffffffffffffffffffffffffff1681526020019081526020016000206005018560405161083091906129f2565b908152602001604051809103902060009054906101000a900460ff1661088b576040517f08c379a000000000000000000000000000000000000000000000000000000000815260040161088290612b2d565b60405180910390fd5b8773ffffffffffffffffffffffffffffffffffffffff1687876040516108b2929190612b7d565b6000604051808303816000865af19150503d80600081146108ef576040519150601f19603f3d011682016040523d82523d6000602084013e6108f4565b606091505b5080945081955050508361093d576040517f08c379a000000000000000000000000000000000000000000000000000000000815260040161093490612be2565b60405180910390fd5b505094509492505050565b600080600260008573ffffffffffffffffffffffffffffffffffffffff1673ffffffffffffffffffffffffffffffffffffffff16815260200190815260200160002090508060030160009054906101000a900460ff1680156109ad5750428160020154115b80156109e457506003836040516109c491906129f2565b908152602001604051809103902060020160149054906101000a900460ff165b8015610a1b57506003836040516109fb91906129f2565b908152602001604051809103902060020160159054906101000a900460ff165b91505092915050565b610a2c61190c565b6001600382604051610a3e91906129f2565b908152602001604051809103902060020160156101000a81548160ff02191690831515021790555050565b6000600260003373ffffffffffffffffffffffffffffffffffffffff1673ffffffffffffffffffffffffffffffffffffffff16815260200190815260200160002090508060030160009054906101000a900460ff16610afd576040517f08c379a0000000000000000000000000000000000000000000000000000000008152600401610af490612c4e565b60405180910390fd5b60008160030160006101000a81548160ff0219169083151502179055503373ffffffffffffffffffffffffffffffffffffffff167fe6c9ad9c1dcb7029a6dda83ad7fe369d1d509d01674340bb8762d43336ad42568260010154604051610b649190611f21565b60405180910390a250565b610b7761190c565b610b816000611993565b565b610b8b61190c565b600654811115610bd0576040517f08c379a0000000000000000000000000000000000000000000000000000000008152600401610bc790612cba565b60405180910390fd5b8060058190555050565b600381805160208101820180518482526020830160208501208183528095505050505050600091509050806000018054610c1390612d09565b80601f0160208091040260200160405190810160405280929190818152602001828054610c3f90612d09565b8015610c8c5780601f10610c6157610100808354040283529160200191610c8c565b820191906000526020600020905b815481529060010190602001808311610c6f57829003601f168201915b505050505090806001018054610ca190612d09565b80601f0160208091040260200160405190810160405280929190818152602001828054610ccd90612d09565b8015610d1a5780601f10610cef57610100808354040283529160200191610d1a565b820191906000526020600020905b815481529060010190602001808311610cfd57829003601f168201915b5050505050908060020160009054906101000a900473ffffffffffffffffffffffffffffffffffffffff16908060020160149054906101000a900460ff16908060020160159054906101000a900460ff16905085565b6000600160009054906101000a900473ffffffffffffffffffffffffffffffffffffffff16905090565b610da2611a59565b600654821115610de7576040517f08c379a0000000000000000000000000000000000000000000000000000000008152600401610dde90612cba565b60405180910390fd5b6000808311610df857600554610dfa565b825b905060008142610e0a91906128ed565b9050600033600460003373ffffffffffffffffffffffffffffffffffffffff1673ffffffffffffffffffffffffffffffffffffffff168152602001908152602001600020548346604051602001610e649493929190612da3565b6040516020818303038152906040528051906020012090506000610e8782611a9f565b90506000610e9e8683611ad590919063ffffffff16565b90503373ffffffffffffffffffffffffffffffffffffffff168173ffffffffffffffffffffffffffffffffffffffff1614610f0e576040517f08c379a0000000000000000000000000000000000000000000000000000000008152600401610f0590612e3d565b60405180910390fd5b600460003373ffffffffffffffffffffffffffffffffffffffff1673ffffffffffffffffffffffffffffffffffffffff1681526020019081526020016000206000815480929190610f5e90612e5d565b919050555060076000815480929190610f7690612e5d565b91905055506000600260003373ffffffffffffffffffffffffffffffffffffffff1673ffffffffffffffffffffffffffffffffffffffff1681526020019081526020016000209050338160000160006101000a81548173ffffffffffffffffffffffffffffffffffffffff021916908373ffffffffffffffffffffffffffffffffffffffff160217905550600754816001018190555084816002018190555060018160030160006101000a81548160ff02191690831515021790555060005b81600401805490508110156110a9576000826005018360040183815481106110605761105f612ea5565b5b906000526020600020016040516110779190612f6c565b908152602001604051809103902060006101000a81548160ff0219169083151502179055508080600101915050611035565b508060040160006110ba9190611dc7565b6007543373ffffffffffffffffffffffffffffffffffffffff167f22b6198ffd4ccd0bb89f487d5672d82e4727691fb25a830579ab871c93c147cd876040516111039190611f21565b60405180910390a3505050505050611119611b01565b5050565b600081600260008273ffffffffffffffffffffffffffffffffffffffff1673ffffffffffffffffffffffffffffffffffffffff16815260200190815260200160002060030160009054906101000a900460ff1680156111bd575042600260008373ffffffffffffffffffffffffffffffffffffffff1673ffffffffffffffffffffffffffffffffffffffff16815260200190815260200160002060020154115b6111fc576040517f08c379a00000000000000000000000000000000000000000000000000000000081526004016111f390612832565b60405180910390fd5b8360038160405161120d91906129f2565b908152602001604051809103902060020160149054906101000a900460ff1661126b576040517f08c379a000000000000000000000000000000000000000000000000000000000815260040161126290612a55565b60405180910390fd5b60038160405161127b91906129f2565b908152602001604051809103902060020160159054906101000a900460ff166112d9576040517f08c379a00000000000000000000000000000000000000000000000000000000081526004016112d090612ac1565b60405180910390fd5b6000600260008673ffffffffffffffffffffffffffffffffffffffff1673ffffffffffffffffffffffffffffffffffffffff1681526020019081526020016000209050806005018660405161132e91906129f2565b908152602001604051809103902060009054906101000a900460ff166113bf576001816005018760405161136291906129f2565b908152602001604051809103902060006101000a81548160ff02191690831515021790555080600401869080600181540180825580915050600190039060005260206000200160009091909190915090816113bd919061311a565b505b856040516113cd91906129f2565b60405180910390208573ffffffffffffffffffffffffffffffffffffffff167f4778e28c18f7c943623de82eed02987b365102224aef3a37087d7e2a289452f3836001015460405161141f9190611f21565b60405180910390a36001935050505092915050565b61143c61190c565b8060068190555050565b600080600060606000600260008773ffffffffffffffffffffffffffffffffffffffff1673ffffffffffffffffffffffffffffffffffffffff1681526020019081526020016000209050806001015481600201548260030160009054906101000a900460ff1680156114bb5750428360020154115b8360040180805480602002602001604051908101604052809291908181526020016000905b8282101561158c5783829060005260206000200180546114ff90612d09565b80601f016020809104026020016040519081016040528092919081815260200182805461152b90612d09565b80156115785780601f1061154d57610100808354040283529160200191611578565b820191906000526020600020905b81548152906001019060200180831161155b57829003601f168201915b5050505050815260200190600101906114e0565b5050505090509450945094509450509193509193565b60055481565b6115b061190c565b60008451116115f4576040517f08c379a00000000000000000000000000000000000000000000000000000000081526004016115eb90613238565b60405180910390fd5b60038460405161160491906129f2565b908152602001604051809103902060020160159054906101000a900460ff1615611663576040517f08c379a000000000000000000000000000000000000000000000000000000000815260040161165a906132a4565b60405180910390fd5b6040518060a001604052808481526020018381526020018273ffffffffffffffffffffffffffffffffffffffff168152602001600115158152602001600115158152506003856040516116b691906129f2565b908152602001604051809103902060008201518160000190816116d9919061311a565b5060208201518160010190816116ef919061311a565b5060408201518160020160006101000a81548173ffffffffffffffffffffffffffffffffffffffff021916908373ffffffffffffffffffffffffffffffffffffffff16021790555060608201518160020160146101000a81548160ff02191690831515021790555060808201518160020160156101000a81548160ff0219169083151502179055509050508073ffffffffffffffffffffffffffffffffffffffff168460405161179f91906129f2565b60405180910390207f62113b6f6687f192bedab3f05b0208d662d81e3a8cbfa0b68503e2f3a04de8d2846040516117d691906132c4565b60405180910390a350505050565b60026020528060005260406000206000915090508060000160009054906101000a900473ffffffffffffffffffffffffffffffffffffffff16908060010154908060020154908060030160009054906101000a900460ff16905084565b61184961190c565b600073ffffffffffffffffffffffffffffffffffffffff168173ffffffffffffffffffffffffffffffffffffffff16036118bb5760006040517f1e4fbdf70000000000000000000000000000000000000000000000000000000081526004016118b2919061241a565b60405180910390fd5b6118c481611993565b50565b6118cf61190c565b60006003826040516118e191906129f2565b908152602001604051809103902060020160156101000a81548160ff02191690831515021790555050565b611914611b0b565b73ffffffffffffffffffffffffffffffffffffffff16611932610d70565b73ffffffffffffffffffffffffffffffffffffffff161461199157611955611b0b565b6040517f118cdaa7000000000000000000000000000000000000000000000000000000008152600401611988919061241a565b60405180910390fd5b565b6000600160009054906101000a900473ffffffffffffffffffffffffffffffffffffffff16905081600160006101000a81548173ffffffffffffffffffffffffffffffffffffffff021916908373ffffffffffffffffffffffffffffffffffffffff1602179055508173ffffffffffffffffffffffffffffffffffffffff168173ffffffffffffffffffffffffffffffffffffffff167f8be0079c531659141344cd1fd0a4f28419497f9722a3daafe3b4186f6b6457e060405160405180910390a35050565b600260005403611a95576040517f3ee5aeb500000000000000000000000000000000000000000000000000000000815260040160405180910390fd5b6002600081905550565b60007f19457468657265756d205369676e6564204d6573736167653a0a33320000000060005281601c52603c6000209050919050565b600080600080611ae58686611b13565b925092509250611af58282611b6f565b82935050505092915050565b6001600081905550565b600033905090565b60008060006041845103611b585760008060006020870151925060408701519150606087015160001a9050611b4a88828585611cd3565b955095509550505050611b68565b60006002855160001b9250925092505b9250925092565b60006003811115611b8357611b826132e6565b5b826003811115611b9657611b956132e6565b5b0315611ccf5760016003811115611bb057611baf6132e6565b5b826003811115611bc357611bc26132e6565b5b03611bfa576040517ff645eedf00000000000000000000000000000000000000000000000000000000815260040160405180910390fd5b60026003811115611c0e57611c0d6132e6565b5b826003811115611c2157611c206132e6565b5b03611c66578060001c6040517ffce698f7000000000000000000000000000000000000000000000000000000008152600401611c5d9190611f21565b60405180910390fd5b600380811115611c7957611c786132e6565b5b826003811115611c8c57611c8b6132e6565b5b03611cce57806040517fd78bce0c000000000000000000000000000000000000000000000000000000008152600401611cc5919061332e565b60405180910390fd5b5b5050565b60008060007f7fffffffffffffffffffffffffffffff5d576e7357a4501ddfe92f46681b20a08460001c1115611d13576000600385925092509250611dbd565b600060018888888860405160008152602001604052604051611d389493929190613365565b6020604051602081039080840390855afa158015611d5a573d6000803e3d6000fd5b505050602060405103519050600073ffffffffffffffffffffffffffffffffffffffff168173ffffffffffffffffffffffffffffffffffffffff1603611dae57600060016000801b93509350935050611dbd565b8060008060001b935093509350505b9450945094915050565b5080546000825590600052602060002090810190611de59190611de8565b50565b5b80821115611e085760008181611dff9190611e0c565b50600101611de9565b5090565b508054611e1890612d09565b6000825580601f10611e2a5750611e49565b601f016020900490600052602060002090810190611e489190611e4c565b5b50565b5b80821115611e65576000816000905550600101611e4d565b5090565b6000604051905090565b600080fd5b600080fd5b600073ffffffffffffffffffffffffffffffffffffffff82169050919050565b6000611ea882611e7d565b9050919050565b611eb881611e9d565b8114611ec357600080fd5b50565b600081359050611ed581611eaf565b92915050565b600060208284031215611ef157611ef0611e73565b5b6000611eff84828501611ec6565b91505092915050565b6000819050919050565b611f1b81611f08565b82525050565b6000602082019050611f366000830184611f12565b92915050565b611f4581611f08565b8114611f5057600080fd5b50565b600081359050611f6281611f3c565b92915050565b600060208284031215611f7e57611f7d611e73565b5b6000611f8c84828501611f53565b91505092915050565b600080fd5b600080fd5b600080fd5b60008083601f840112611fba57611fb9611f95565b5b8235905067ffffffffffffffff811115611fd757611fd6611f9a565b5b602083019150836001820283011115611ff357611ff2611f9f565b5b9250929050565b600080fd5b6000601f19601f8301169050919050565b7f4e487b7100000000000000000000000000000000000000000000000000000000600052604160045260246000fd5b61204882611fff565b810181811067ffffffffffffffff8211171561206757612066612010565b5b80604052505050565b600061207a611e69565b9050612086828261203f565b919050565b600067ffffffffffffffff8211156120a6576120a5612010565b5b6120af82611fff565b9050602081019050919050565b82818337600083830152505050565b60006120de6120d98461208b565b612070565b9050828152602081018484840111156120fa576120f9611ffa565b5b6121058482856120bc565b509392505050565b600082601f83011261212257612121611f95565b5b81356121328482602086016120cb565b91505092915050565b6000806000806060858703121561215557612154611e73565b5b600061216387828801611ec6565b945050602085013567ffffffffffffffff81111561218457612183611e78565b5b61219087828801611fa4565b9350935050604085013567ffffffffffffffff8111156121b3576121b2611e78565b5b6121bf8782880161210d565b91505092959194509250565b60008115159050919050565b6121e0816121cb565b82525050565b600081519050919050565b600082825260208201905092915050565b60005b83811015612220578082015181840152602081019050612205565b60008484015250505050565b6000612237826121e6565b61224181856121f1565b9350612251818560208601612202565b61225a81611fff565b840191505092915050565b600060408201905061227a60008301856121d7565b818103602083015261228c818461222c565b90509392505050565b600080604083850312156122ac576122ab611e73565b5b60006122ba85828601611ec6565b925050602083013567ffffffffffffffff8111156122db576122da611e78565b5b6122e78582860161210d565b9150509250929050565b600060208201905061230660008301846121d7565b92915050565b60006020828403121561232257612321611e73565b5b600082013567ffffffffffffffff8111156123405761233f611e78565b5b61234c8482850161210d565b91505092915050565b600081519050919050565b600082825260208201905092915050565b600061237c82612355565b6123868185612360565b9350612396818560208601612202565b61239f81611fff565b840191505092915050565b6123b381611e9d565b82525050565b600060a08201905081810360008301526123d38188612371565b905081810360208301526123e78187612371565b90506123f660408301866123aa565b61240360608301856121d7565b61241060808301846121d7565b9695505050505050565b600060208201905061242f60008301846123aa565b92915050565b600067ffffffffffffffff8211156124505761244f612010565b5b61245982611fff565b9050602081019050919050565b600061247961247484612435565b612070565b90508281526020810184848401111561249557612494611ffa565b5b6124a08482856120bc565b509392505050565b600082601f8301126124bd576124bc611f95565b5b81356124cd848260208601612466565b91505092915050565b600080604083850312156124ed576124ec611e73565b5b60006124fb85828601611f53565b925050602083013567ffffffffffffffff81111561251c5761251b611e78565b5b612528858286016124a8565b9150509250929050565b6000806040838503121561254957612548611e73565b5b600083013567ffffffffffffffff81111561256757612566611e78565b5b6125738582860161210d565b925050602061258485828601611ec6565b9150509250929050565b600081519050919050565b600082825260208201905092915050565b6000819050602082019050919050565b600082825260208201905092915050565b60006125d682612355565b6125e081856125ba565b93506125f0818560208601612202565b6125f981611fff565b840191505092915050565b600061261083836125cb565b905092915050565b6000602082019050919050565b60006126308261258e565b61263a8185612599565b93508360208202850161264c856125aa565b8060005b8581101561268857848403895281516126698582612604565b945061267483612618565b925060208a01995050600181019050612650565b50829750879550505050505092915050565b60006080820190506126af6000830187611f12565b6126bc6020830186611f12565b6126c960408301856121d7565b81810360608301526126db8184612625565b905095945050505050565b60008060008060808587031215612700576126ff611e73565b5b600085013567ffffffffffffffff81111561271e5761271d611e78565b5b61272a8782880161210d565b945050602085013567ffffffffffffffff81111561274b5761274a611e78565b5b6127578782880161210d565b935050604085013567ffffffffffffffff81111561277857612777611e78565b5b6127848782880161210d565b925050606061279587828801611ec6565b91505092959194509250565b60006080820190506127b660008301876123aa565b6127c36020830186611f12565b6127d06040830185611f12565b6127dd60608301846121d7565b95945050505050565b7f496e76616c6964206f7220657870697265642073657373696f6e000000000000600082015250565b600061281c601a83612360565b9150612827826127e6565b602082019050919050565b6000602082019050818103600083015261284b8161280f565b9050919050565b7f496e76616c6964206475726174696f6e00000000000000000000000000000000600082015250565b6000612888601083612360565b915061289382612852565b602082019050919050565b600060208201905081810360008301526128b78161287b565b9050919050565b7f4e487b7100000000000000000000000000000000000000000000000000000000600052601160045260246000fd5b60006128f882611f08565b915061290383611f08565b925082820190508082111561291b5761291a6128be565b5b92915050565b7f457874656e73696f6e20746f6f206c6f6e670000000000000000000000000000600082015250565b6000612957601283612360565b915061296282612921565b602082019050919050565b600060208201905081810360008301526129868161294a565b9050919050565b60006040820190506129a26000830185611f12565b6129af6020830184611f12565b9392505050565b600081905092915050565b60006129cc82612355565b6129d681856129b6565b93506129e6818560208601612202565b80840191505092915050565b60006129fe82846129c1565b915081905092915050565b7f44617070206e6f74207665726966696564000000000000000000000000000000600082015250565b6000612a3f601183612360565b9150612a4a82612a09565b602082019050919050565b60006020820190508181036000830152612a6e81612a32565b9050919050565b7f44617070206e6f74206163746976650000000000000000000000000000000000600082015250565b6000612aab600f83612360565b9150612ab682612a75565b602082019050919050565b60006020820190508181036000830152612ada81612a9e565b9050919050565b7f44617070206e6f7420636f6e6e65637465640000000000000000000000000000600082015250565b6000612b17601283612360565b9150612b2282612ae1565b602082019050919050565b60006020820190508181036000830152612b4681612b0a565b9050919050565b600081905092915050565b6000612b648385612b4d565b9350612b718385846120bc565b82840190509392505050565b6000612b8a828486612b58565b91508190509392505050565b7f5472616e73616374696f6e206661696c65640000000000000000000000000000600082015250565b6000612bcc601283612360565b9150612bd782612b96565b602082019050919050565b60006020820190508181036000830152612bfb81612bbf565b9050919050565b7f4e6f206163746976652073657373696f6e000000000000000000000000000000600082015250565b6000612c38601183612360565b9150612c4382612c02565b602082019050919050565b60006020820190508181036000830152612c6781612c2b565b9050919050565b7f4475726174696f6e20746f6f206c6f6e67000000000000000000000000000000600082015250565b6000612ca4601183612360565b9150612caf82612c6e565b602082019050919050565b60006020820190508181036000830152612cd381612c97565b9050919050565b7f4e487b7100000000000000000000000000000000000000000000000000000000600052602260045260246000fd5b60006002820490506001821680612d2157607f821691505b602082108103612d3457612d33612cda565b5b50919050565b60008160601b9050919050565b6000612d5282612d3a565b9050919050565b6000612d6482612d47565b9050919050565b612d7c612d7782611e9d565b612d59565b82525050565b6000819050919050565b612d9d612d9882611f08565b612d82565b82525050565b6000612daf8287612d6b565b601482019150612dbf8286612d8c565b602082019150612dcf8285612d8c565b602082019150612ddf8284612d8c565b60208201915081905095945050505050565b7f496e76616c6964207369676e6174757265000000000000000000000000000000600082015250565b6000612e27601183612360565b9150612e3282612df1565b602082019050919050565b60006020820190508181036000830152612e5681612e1a565b9050919050565b6000612e6882611f08565b91507fffffffffffffffffffffffffffffffffffffffffffffffffffffffffffffffff8203612e9a57612e996128be565b5b600182019050919050565b7f4e487b7100000000000000000000000000000000000000000000000000000000600052603260045260246000fd5b60008190508160005260206000209050919050565b60008154612ef681612d09565b612f0081866129b6565b94506001821660008114612f1b5760018114612f3057612f63565b60ff1983168652811515820286019350612f63565b612f3985612ed4565b60005b83811015612f5b57815481890152600182019150602081019050612f3c565b838801955050505b50505092915050565b6000612f788284612ee9565b915081905092915050565b60006020601f8301049050919050565b600082821b905092915050565b600060088302612fd07fffffffffffffffffffffffffffffffffffffffffffffffffffffffffffffffff82612f93565b612fda8683612f93565b95508019841693508086168417925050509392505050565b6000819050919050565b600061301761301261300d84611f08565b612ff2565b611f08565b9050919050565b6000819050919050565b61303183612ffc565b61304561303d8261301e565b848454612fa0565b825550505050565b600090565b61305a61304d565b613065818484613028565b505050565b5b818110156130895761307e600082613052565b60018101905061306b565b5050565b601f8211156130ce5761309f81612ed4565b6130a884612f83565b810160208510156130b7578190505b6130cb6130c385612f83565b83018261306a565b50505b505050565b600082821c905092915050565b60006130f1600019846008026130d3565b1980831691505092915050565b600061310a83836130e0565b9150826002028217905092915050565b61312382612355565b67ffffffffffffffff81111561313c5761313b612010565b5b6131468254612d09565b61315182828561308d565b600060209050601f8311600181146131845760008415613172578287015190505b61317c85826130fe565b8655506131e4565b601f19841661319286612ed4565b60005b828110156131ba57848901518255600182019150602085019450602081019050613195565b868310156131d757848901516131d3601f8916826130e0565b8355505b6001600288020188555050505b505050505050565b7f496e76616c696420644170702049440000000000000000000000000000000000600082015250565b6000613222600f83612360565b915061322d826131ec565b602082019050919050565b6000602082019050818103600083015261325181613215565b9050919050565b7f4461707020616c72656164792072656769737465726564000000000000000000600082015250565b600061328e601783612360565b915061329982613258565b602082019050919050565b600060208201905081810360008301526132bd81613281565b9050919050565b600060208201905081810360008301526132de8184612371565b905092915050565b7f4e487b7100000000000000000000000000000000000000000000000000000000600052602160045260246000fd5b6000819050919050565b61332881613315565b82525050565b6000602082019050613343600083018461331f565b92915050565b600060ff82169050919050565b61335f81613349565b82525050565b600060808201905061337a600083018761331f565b6133876020830186613356565b613394604083018561331f565b6133a1606083018461331f565b9594505050505056fea26469706673582212203448018d20cdedaa4c114157d47e425f38c2be10c377420f9b05733b6926bc4164736f6c634300081c0033",
  "linkReferences": {},
  "deployedLinkReferences": {}
}